:020000040000FA
:06000000000076EF09F09C
:100600000000FFFF000E966E070E946E000E926EB5
:10061000000E956E000E936E000E156E000E146E99
:10062000000E176E000E166E000E3D6E010E3C6E33
:10063000000E2D6E000E2C6EFFFF000E2F6E000EB2
:100640002E6EFFFF2E50020DF3CF11F02C50060D31
:10065000F3501A0F1124D96EDA6ADE6ADD6A2E4A67
:100660002F2A2FBE3DEF03F02F500AE1030E2E5C20
:10067000D8A03DEF03F040EF03F0FFFF21EF03F0C0
:10068000FFFF2C4A2D2A2DBE4FEF03F02D500AE11B
:10069000030E2C5CD8A04FEF03F052EF03F0FFFFE6
:1006A0001CEF03F0FFFFFFFF1A0E016E5CEC07F07A
:1006B00001040210D8A45FEF03F062EF03F0FFFF24
:1006C000A8EF03F0FFFF144A152A6DEC09F0000EA5
:1006D0003D6E010E3C6E000E316E000E306EFFFF5F
:1006E000000E336E000E326EFFFF3250020DF3CF5C
:1006F00011F03050060DF3501A0F1124D96EDA6A3A
:10070000DE6ADD6A324A332A33BE90EF03F033509B
:100710000AE1030E325CD8A090EF03F093EF03F0F0
:10072000FFFF74EF03F0FFFF304A312A31BEA2EF22
:1007300003F031500AE1030E305CD8A0A2EF03F0C1
:10074000A5EF03F0FFFF6FEF03F0FFFF4FEF04F0A3
:10075000FFFF1A0E016E5CEC07F0020E011802108A
:10076000D8A4B5EF03F0B8EF03F0FFFFFEEF03F0FE
:10077000FFFF164A172A6DEC09F0000E3D6E010EC0
:100780003C6E000E356E000E346EFFFF000E376EAD
:10079000000E366EFFFF3650020DF3CF11F03450CD
:1007A000060DF3501A0F1124D96EDA6ADE6ADD6A7B
:1007B000364A372A37BEE6EF03F037500AE1030E18
:1007C000365CD8A0E6EF03F0E9EF03F0FFFFCAEFD5
:1007D00003F0FFFF344A352A35BEF8EF03F03550F9
:1007E0000AE1030E345CD8A0F8EF03F0FBEF03F04E
:1007F000FFFFC5EF03F0FFFF4FEF04F0FFFF1A0EFE
:10080000016E5CEC07F0030E01180210D8A40BEF88
:1008100004F00EEF04F0FFFF4FEF04F0FFFF6DEC6C
:1008200009F0000E3D6E010E3C6E000E396E000E9A
:10083000386EFFFF000E3B6E000E3A6EFFFF3A501F
:10084000020DF3CF11F03850060DF3501A0F11249A
:10085000D96EDA6ADE6ADD6A3A4A3B2A3BBE3AEF73
:1008600004F03B500AE1030E3A5CD8A03AEF04F0E2
:100870003DEF04F0FFFF1EEF04F0FFFF384A392A76
:1008800039BE4CEF04F039500AE1030E385CD8A0B1
:100890004CEF04F04FEF04F0FFFF19EF04F0FFFFFF
:1008A0001A0E066E89EC05F014C001F015C002F0B6
:1008B00016C003F017C004F05DEC09F03CC084FFE3
:1008C000000E196E010E186E79EF05F0FFFF3E68FD
:1008D0003F6840684168BCEF04F0FFFF000E086EFF
:1008E000FA0E076EF0EC08F08250D8B47AEF04F0FC
:1008F0007DEF04F0FFFFB2EF04F0FFFF8204D8A405
:1009000084EF04F087EF04F0FFFF8EEF04F0FFFFA9
:10091000000E3F6E000E3E6EB2EF04F0FFFF020EBF
:100920008218D8A496EF04F099EF04F0FFFFA0EF2F
:1009300004F0FFFF000E3F6E010E3E6EB2EF04F0BA
:10094000FFFF040E8218D8A4A8EF04F0ABEF04F068
:10095000FFFFB2EF04F0FFFF000E3F6E020E3E6E8F
:10096000B2EF04F0FFFF8250D8A4B9EF04F0BCEF5F
:1009700004F0FFFFB2EF04F0FFFF3FBEC2EF04F050
:10098000C5EF04F0FFFF6DEF04F0FFFF3EC001F084
:100990003FC002F031EC09F0010E086EF40E076E54
:1009A000F0EC08F023EF05F0FFFF000E086EFA0EE2
:1009B000076EF0EC08F08250D8B4E1EF04F0E4EFF9
:1009C00004F0FFFF19EF05F0FFFF8204D8A4EBEF5E
:1009D00004F0EEEF04F0FFFFF5EF04F0FFFF000E70
:1009E000416E000E406E19EF05F0FFFF020E8218F7
:1009F000D8A4FDEF04F000EF05F0FFFF07EF05F0CE
:100A0000FFFF000E416E010E406E19EF05F0FFFF73
:100A1000040E8218D8A40FEF05F012EF05F0FFFFC7
:100A200019EF05F0FFFF000E416E020E406E19EF48
:100A300005F0FFFF8250D8A420EF05F023EF05F06A
:100A4000FFFF19EF05F0FFFF41BE29EF05F02CEF86
:100A500005F0FFFFD4EF04F0FFFF40C001F041C0FC
:100A600002F031EC09F0030E086EE80E076EF0ECB0
:100A700008F04050020DF3CF11F03E50060DF35038
:100A80001A0F1124D96EDA6ADE50DE10D8A44BEFAB
:100A900005F04EEF05F0FFFF79EF05F0FFFF405046
:100AA000020DF3CF11F03E50060DF3501A0F112432
:100AB000D96EDA6A3CC0DEFF3DC0DDFF3C043D106C
:100AC000D8A465EF05F068EF05F0FFFF6FEF05F0C4
:100AD000FFFF000E3D6E020E3C6E74EF05F0FFFF4F
:100AE000000E3D6E010E3C6EFFFF000E196E000EF3
:100AF000186EFFFF18501910D8A481EF05F084EF8D
:100B000005F0FFFF66EF04F0FFFF53EF03F001EF86
:100B100000F0FFFF0650D96EDA6ADE50DE10D8B45E
:100B200094EF05F097EF05F0FFFFB9EF05F0FFFF39
:100B30000650D96EDA6ADE04DE10D8A4A2EF05F002
:100B4000A5EF05F0FFFFB0EF05F0FFFF800E016E8F
:100B50000F0E026E000E036E1AEC09F0B9EF05F0ED
:100B6000FFFF800E016E0F0E026E010E036E1AEC77
:100B700009F0FFFF0650D96EDA6A020ED926DE5060
:100B8000DE10D8B4C6EF05F0C9EF05F0FFFFEDEFBA
:100B900005F0FFFF0650D96EDA6A020ED926DE0490
:100BA000DE10D8A4D6EF05F0D9EF05F0FFFFE4EF93
:100BB00005F0FFFF800E016E0F0E026E020E036E37
:100BC0001AEC09F0EDEF05F0FFFF800E016E0F0E3D
:100BD000026E030E036E1AEC09F0FFFF0650D96E89
:100BE000DA6A040ED926DE50DE10D8B4FAEF05F02A
:100BF000FDEF05F0FFFF21EF06F0FFFF0650D96E75
:100C0000DA6A040ED926DE04DE10D8A40AEF06F054
:100C10000DEF06F0FFFF18EF06F0FFFF800E016EEC
:100C20000F0E026E040E036E1AEC09F021EF06F0AF
:100C3000FFFF800E016E0F0E026E050E036E1AECA2
:100C400009F0FFFF0650D96EDA6A060ED926DE508B
:100C5000DE10D8B42EEF06F031EF06F0FFFF55EFAF
:100C600006F0FFFF0650D96EDA6A060ED926DE04BA
:100C7000DE10D8A43EEF06F041EF06F0FFFF4CEF88
:100C800006F0FFFF830E016E0F0E026E000E036E64
:100C90001AEC09F055EF06F0FFFF830E016E0F0E00
:100CA000026E010E036E1AEC09F0FFFF0650D96EBA
:100CB000DA6A080ED926DE50DE10D8B462EF06F0EC
:100CC00065EF06F0FFFF89EF06F0FFFF0650D96ED3
:100CD000DA6A080ED926DE04DE10D8A472EF06F018
:100CE00075EF06F0FFFF80EF06F0FFFF830E016E49
:100CF0000F0E026E020E036E1AEC09F089EF06F079
:100D0000FFFF830E016E0F0E026E030E036E1AECD0
:100D100009F0FFFF0650D96EDA6A0A0ED926DE50B6
:100D2000DE10D8B496EF06F099EF06F0FFFFBDEFA6
:100D300006F0FFFF0650D96EDA6A0A0ED926DE04E5
:100D4000DE10D8A4A6EF06F0A9EF06F0FFFFB4EF7F
:100D500006F0FFFF830E016E0F0E026E040E036E8F
:100D60001AEC09F0BDEF06F0FFFF830E016E0F0EC7
:100D7000026E050E036E1AEC09F0FFFF0650D96EE5
:100D8000DA6A0C0ED926DE50DE10D8B4CAEF06F0AF
:100D9000CDEF06F0FFFFF1EF06F0FFFF0650D96E32
:100DA000DA6A0C0ED926DE04DE10D8A4DAEF06F0DB
:100DB000DDEF06F0FFFFE8EF06F0FFFF830E016EA8
:100DC0000F0E026E060E036E1AEC09F0F1EF06F03C
:100DD000FFFF830E016E0F0E026E070E036E1AECFC
:100DE00009F0FFFF0650D96EDA6A0E0ED926DE50E2
:100DF000DE10D8B4FEEF06F001EF07F0FFFF25EF9D
:100E000007F0FFFF0650D96EDA6A0E0ED926DE040F
:100E1000DE10D8A40EEF07F011EF07F0FFFF1CEF74
:100E200007F0FFFF820E016E0F0E026E030E036EBF
:100E30001AEC09F025EF07F0FFFF820E016E0F0E8E
:100E4000026E040E036E1AEC09F0FFFF0650D96E15
:100E5000DA6A100ED926DE50DE10D8B432EF07F071
:100E600035EF07F0FFFF59EF07F0FFFF0650D96E8F
:100E7000DA6A100ED926DE04DE10D8A442EF07F09D
:100E800045EF07F0FFFF50EF07F0FFFF820E016E06
:100E90000F0E026E050E036E1AEC09F059EF07F003
:100EA000FFFF820E016E0F0E026E060E036E1AEC2D
:100EB00009F0FFFF1200FFFFFFFF000E0E6E000E95
:100EC0000D6EFFFF000E106E000E0F6EFFFF0F5035
:100ED000020DF3CF03F00D50060D0150F32403244F
:100EE000D96EDA6ADE50DE10D8B479EF07F07CEF05
:100EF00007F0FFFF79EF08F0FFFF0F50020DF3CF6F
:100F000003F00D50060D0150F3240324D96EDA6A64
:100F10000F50020DF3CF06F00D50060D0150F324D3
:100F20000624E16EE26A060EE126DE50E61807E1CD
:100F3000DE50E618D8A49FEF07F0A2EF07F0FFFFFE
:100F4000DBEF07F0FFFF0F50020DF3CF03F00D5062
:100F5000060D0150F3240324D96EDA6A0F50020DF6
:100F6000F3CF06F00D50060D0150F3240624E16E78
:100F7000E26A0C0EE126DE50E61807E1DE50E618C4
:100F8000D8A4C5EF07F0C8EF07F0FFFFDBEF07F0CD
:100F9000FFFFFFFF0F50020DF3CF03F00D50060DC2
:100FA0000150F3240324D96EDA6ADECF01F0DDCFDD
:100FB00002F0EDEF08F0FFFF0F50020DF3CF03F04A
:100FC0000D50060D0150F3240324D96EDA6A0F5038
:100FD000020DF3CF06F00D50060D0150F324062448
:100FE000E16EE26A020EE126DE50E61807E1DE500D
:100FF000E618D8A4FEEF07F001EF08F0FFFF2AEF94
:1010000008F0FFFF0F50020DF3CF03F00D50060D57
:101010000150F3240324D96EDA6A0F50020DF3CF86
:1010200006F00D50060D0150F3240624E16EE26A2D
:10103000040EE126DE50E61807E1DE50E618D8A4DB
:1010400024EF08F027EF08F0FFFF2AEF08F0FFFF7A
:10105000C9EF07F0FFFF0F50020DF3CF03F00D5063
:10106000060D0150F3240324D96EDA6A0F50020DE5
:10107000F3CF06F00D50060D0150F3240624E16E67
:10108000E26A080EE126DE50E61807E1DE50E618B7
:10109000D8A44DEF08F050EF08F0FFFF79EF08F00B
:1010A000FFFF0F50020DF3CF03F00D50060D01505E
:1010B000F3240324D96EDA6A0F50020DF3CF06F041
:1010C0000D50060D0150F3240624E16EE26A100E65
:1010D000E126DE50E61807E1DE50E618D8A473EFEB
:1010E00008F076EF08F0FFFF79EF08F0FFFFC9EF97
:1010F00007F0FFFF0F4A102A10BE88EF08F01050CB
:101100000AE1030E0F5CD8A088EF08F08BEF08F01F
:10111000FFFF66EF07F0FFFF0D4A0E2A0EBE9AEFA3
:1011200008F00E500AE1030E0D5CD8A09AEF08F00B
:101130009DEF08F0FFFF61EF07F0FFFF000E0A6E62
:10114000000E096EFFFF000E0C6E000E0B6EFFFF0F
:101150000B50020DF3CF03F00950060D0150F3249C
:101160000324D96EDA6ADE50DE10D8A4BAEF08F094
:10117000BDEF08F0FFFFC4EF08F0FFFF000E026EA6
:10118000000E016EEDEF08F0FFFF0B4A0C2A0CBEBB
:10119000D3EF08F00C500AE1030E0B5CD8A0D3EF9C
:1011A00008F0D6EF08F0FFFFA7EF08F0FFFF094AAD
:1011B0000A2A0ABEE5EF08F00A500AE1030E095CAC
:1011C000D8A0E5EF08F0E8EF08F0FFFFA2EF08F085
:1011D000FFFF000E026E030E016EFFFF1200FFFF05
:1011E000FFFF07C001F008C002F0030E046EE80E16
:1011F000036E48EC09F001C009F002C00AF0FFFFDD
:101200000ABE0EEF09F00A5006E10904D8B00BEF50
:1012100009F00EEF09F0FFFF11EF09F0FFFF17EFE4
:1012200009F0FFFF0906D8A00A06FFEF08F0FFFF4C
:101230001200FFFFFFFF03C004F0010E056E042A39
:1012400025EF09F0FFFFD8900536FFFF042E22EFAF
:1012500009F001C0D9FF02C0DAFF0550DF12120009
:10126000FFFFFFFF01C003F0010E046E032A3CEFF5
:1012700009F0FFFFD8900436FFFF032E39EF09F085
:101280000450056EF80E8116055081121200FFFF02
:10129000FFFF01500302F3CF05F0F4CF06F0015039
:1012A0000402F350062602500302F350062605C03E
:1012B00001F006C002F01200FFFFFFFFF00E056E06
:1012C000F00E811601500F0B81120F0E811603389C
:1012D000F00BF00B81121200FFFFFFFF000E826E79
:1012E000000E836E000E806E1200FFFF000101EF02
:0412F00003F0FFFF09
:020000040020DA
:08000000FFFFFFFFFFFFFFFF00
:020000040030CA
:0E000000FF270F0EFF0185FF0FC00FE00F401E
:00000001FF
