:020000040000FA
:060000000000ACEF09F066
:100600000000FFFF000E966E070E946E000E926EB5
:10061000000E956E000E936E000E156E000E146E99
:10062000000E176E000E166E000E3D6E010E3C6E33
:10063000000E2D6E000E2C6EFFFF000E2F6E000EB2
:100640002E6EFFFF2E50020DF3CF11F02C50060D31
:10065000F3501A0F1124D96EDA6ADE6ADD6A2E4A67
:100660002F2A2FBE3DEF03F02F500AE1030E2E5C20
:10067000D8A03DEF03F040EF03F0FFFF21EF03F0C0
:10068000FFFF2C4A2D2A2DBE4FEF03F02D500AE11B
:10069000030E2C5CD8A04FEF03F052EF03F0FFFFE6
:1006A0001CEF03F0FFFFFFFF1A0E016E48EC07F08E
:1006B00001040210D8A45FEF03F062EF03F0FFFF24
:1006C000A8EF03F0FFFF144A152AA3EC09F0000E6F
:1006D0003D6E010E3C6E000E316E000E306EFFFF5F
:1006E000000E336E000E326EFFFF3250020DF3CF5C
:1006F00011F03050060DF3501A0F1124D96EDA6A3A
:10070000DE6ADD6A324A332A33BE90EF03F033509B
:100710000AE1030E325CD8A090EF03F093EF03F0F0
:10072000FFFF74EF03F0FFFF304A312A31BEA2EF22
:1007300003F031500AE1030E305CD8A0A2EF03F0C1
:10074000A5EF03F0FFFF6FEF03F0FFFF4FEF04F0A3
:10075000FFFF1A0E016E48EC07F0020E011802109E
:10076000D8A4B5EF03F0B8EF03F0FFFFFEEF03F0FE
:10077000FFFF164A172AA3EC09F0000E3D6E010E8A
:100780003C6E000E356E000E346EFFFF000E376EAD
:10079000000E366EFFFF3650020DF3CF11F03450CD
:1007A000060DF3501A0F1124D96EDA6ADE6ADD6A7B
:1007B000364A372A37BEE6EF03F037500AE1030E18
:1007C000365CD8A0E6EF03F0E9EF03F0FFFFCAEFD5
:1007D00003F0FFFF344A352A35BEF8EF03F03550F9
:1007E0000AE1030E345CD8A0F8EF03F0FBEF03F04E
:1007F000FFFFC5EF03F0FFFF4FEF04F0FFFF1A0EFE
:10080000016E48EC07F0030E01180210D8A40BEF9C
:1008100004F00EEF04F0FFFF4FEF04F0FFFFA3EC36
:1008200009F0000E3D6E010E3C6E000E396E000E9A
:10083000386EFFFF000E3B6E000E3A6EFFFF3A501F
:10084000020DF3CF11F03850060DF3501A0F11249A
:10085000D96EDA6ADE6ADD6A3A4A3B2A3BBE3AEF73
:1008600004F03B500AE1030E3A5CD8A03AEF04F0E2
:100870003DEF04F0FFFF1EEF04F0FFFF384A392A76
:1008800039BE4CEF04F039500AE1030E385CD8A0B1
:100890004CEF04F04FEF04F0FFFF19EF04F0FFFFFF
:1008A0001A0E066E75EC05F014C001F015C002F0CA
:1008B00016C003F017C004F093EC09F03CC084FFAD
:1008C000000E196E010E186E65EF05F0FFFF3E6811
:1008D0003F6840684168B2EF04F0FFFF010E086E08
:1008E000F40E076E01EC09F0000E2BEC09F001503C
:1008F0000210D8B47EEF04F081EF04F0FFFF88EF20
:1009000004F0FFFF000E3F6E000E3E6EB2EF04F0EB
:10091000FFFF010E2BEC09F001500210D8B493EF49
:1009200004F096EF04F0FFFF9DEF04F0FFFF000ED0
:100930003F6E010E3E6EB2EF04F0FFFF020E2BEC95
:1009400009F001500210D8B4A8EF04F0ABEF04F0A6
:10095000FFFFB2EF04F0FFFF000E3F6E020E3E6E8F
:10096000B2EF04F0FFFF3FBEB8EF04F0BBEF04F0BE
:10097000FFFF6DEF04F0FFFF3EC001F03FC002F04B
:1009800067EC09F0030E086EE80E076E01EC09F043
:100990000FEF05F0FFFF010E086EF40E076E01EC7D
:1009A00009F0000E2BEC09F001500210D8B4DBEF77
:1009B00004F0DEEF04F0FFFFE5EF04F0FFFF000EB0
:1009C000416E000E406E0FEF05F0FFFF010E2BECA5
:1009D00009F001500210D8B4F0EF04F0F3EF04F086
:1009E000FFFFFAEF04F0FFFF000E416E010E406EB4
:1009F0000FEF05F0FFFF020E2BEC09F00150021083
:100A0000D8B405EF05F008EF05F0FFFF0FEF05F094
:100A1000FFFF000E416E020E406E0FEF05F0FFFF6C
:100A200041BE15EF05F018EF05F0FFFFCAEF04F027
:100A3000FFFF40C001F041C002F067EC09F0030E77
:100A4000086EE80E076E01EC09F04050020DF3CF7E
:100A500011F03E50060DF3501A0F1124D96EDA6AC8
:100A6000DE50DE10D8A437EF05F03AEF05F0FFFFB7
:100A700065EF05F0FFFF4050020DF3CF11F03E503F
:100A8000060DF3501A0F1124D96EDA6A3CC0DEFF4E
:100A90003DC0DDFF3C043D10D8A451EF05F054EFFC
:100AA00005F0FFFF5BEF05F0FFFF000E3D6E020E4D
:100AB0003C6E60EF05F0FFFF000E3D6E010E3C6ED8
:100AC000FFFF000E196E000E186EFFFF1850191070
:100AD000D8A46DEF05F070EF05F0FFFF66EF04F0AE
:100AE000FFFF53EF03F001EF00F0FFFF0650D96E58
:100AF000DA6ADE50DE10D8B480EF05F083EF05F03F
:100B0000FFFFA5EF05F0FFFF0650D96EDA6ADE049D
:100B1000DE10D8A48EEF05F091EF05F0FFFF9CEFFB
:100B200005F0FFFF800E016E0F0E026E000E036EC9
:100B300050EC09F0A5EF05F0FFFF800E016E0F0EDF
:100B4000026E010E036E50EC09F0FFFF0650D96EE5
:100B5000DA6A020ED926DE50DE10D8B4B2EF05F004
:100B6000B5EF05F0FFFFD9EF05F0FFFF0650D96E96
:100B7000DA6A020ED926DE04DE10D8A4C2EF05F030
:100B8000C5EF05F0FFFFD0EF05F0FFFF800E016E0F
:100B90000F0E026E020E036E50EC09F0D9EF05F055
:100BA000FFFF800E016E0F0E026E030E036E50ECFF
:100BB00009F0FFFF0650D96EDA6A040ED926DE501E
:100BC000DE10D8B4E6EF05F0E9EF05F0FFFF0DEF1A
:100BD00006F0FFFF0650D96EDA6A040ED926DE044D
:100BE000DE10D8A4F6EF05F0F9EF05F0FFFF04EFF3
:100BF00006F0FFFF800E016E0F0E026E040E036EF4
:100C000050EC09F00DEF06F0FFFF800E016E0F0EA5
:100C1000026E050E036E50EC09F0FFFF0650D96E10
:100C2000DA6A060ED926DE50DE10D8B41AEF06F0C6
:100C30001DEF06F0FFFF41EF06F0FFFF0650D96EF3
:100C4000DA6A060ED926DE04DE10D8A42AEF06F0F2
:100C50002DEF06F0FFFF38EF06F0FFFF830E016E69
:100C60000F0E026E000E036E50EC09F041EF06F01D
:100C7000FFFF830E016E0F0E026E010E036E50EC2D
:100C800009F0FFFF0650D96EDA6A080ED926DE5049
:100C9000DE10D8B44EEF06F051EF06F0FFFF75EF0F
:100CA00006F0FFFF0650D96EDA6A080ED926DE0478
:100CB000DE10D8A45EEF06F061EF06F0FFFF6CEFE8
:100CC00006F0FFFF830E016E0F0E026E020E036E22
:100CD00050EC09F075EF06F0FFFF830E016E0F0E6A
:100CE000026E030E036E50EC09F0FFFF0650D96E42
:100CF000DA6A0A0ED926DE50DE10D8B482EF06F08A
:100D000085EF06F0FFFFA9EF06F0FFFF0650D96E52
:100D1000DA6A0A0ED926DE04DE10D8A492EF06F0B5
:100D200095EF06F0FFFFA0EF06F0FFFF830E016EC8
:100D30000F0E026E040E036E50EC09F0A9EF06F0E0
:100D4000FFFF830E016E0F0E026E050E036E50EC58
:100D500009F0FFFF0650D96EDA6A0C0ED926DE5074
:100D6000DE10D8B4B6EF06F0B9EF06F0FFFFDDEF06
:100D700006F0FFFF0650D96EDA6A0C0ED926DE04A3
:100D8000DE10D8A4C6EF06F0C9EF06F0FFFFD4EFDF
:100D900006F0FFFF830E016E0F0E026E060E036E4D
:100DA00050EC09F0DDEF06F0FFFF830E016E0F0E31
:100DB000026E070E036E50EC09F0FFFF0650D96E6D
:100DC000DA6A0E0ED926DE50DE10D8B4EAEF06F04D
:100DD000EDEF06F0FFFF11EF07F0FFFF0650D96EB1
:100DE000DA6A0E0ED926DE04DE10D8A4FAEF06F079
:100DF000FDEF06F0FFFF08EF07F0FFFF820E016E28
:100E00000F0E026E030E036E50EC09F011EF07F0A7
:100E1000FFFF820E016E0F0E026E040E036E50EC89
:100E200009F0FFFF0650D96EDA6A100ED926DE509F
:100E3000DE10D8B41EEF07F021EF07F0FFFF45EFFB
:100E400007F0FFFF0650D96EDA6A100ED926DE04CD
:100E5000DE10D8A42EEF07F031EF07F0FFFF3CEFD4
:100E600007F0FFFF820E016E0F0E026E050E036E7D
:100E700050EC09F045EF07F0FFFF820E016E0F0EF8
:100E8000026E060E036E50EC09F0FFFF1200FFFF2A
:100E9000FFFF000E0E6E000E0D6EFFFF000E106EB7
:100EA000000E0F6EFFFF0F50020DF3CF03F00D5039
:100EB000060D0150F3240324D96EDA6ADE50DE10E9
:100EC000D8B465EF07F068EF07F0FFFF16EF08F002
:100ED000FFFF0F50020DF3CF03F00D50060D015030
:100EE000F3240324D96EDA6A0F50020DF3CF06F013
:100EF0000D50060D0150F3240624E16EE26A060E41
:100F0000E126DE50E61807E1DE50E618D8A48BEFA4
:100F100007F08EEF07F0FFFFC7EF07F0FFFF0F505E
:100F2000020DF3CF03F00D50060D0150F3240324FE
:100F3000D96EDA6A0F50020DF3CF06F00D50060D90
:100F40000150F3240624E16EE26A0C0EE126DE5025
:100F5000E61807E1DE50E618D8A4B1EF07F0B4EFC9
:100F600007F0FFFFC7EF07F0FFFFFFFF0F50020D75
:100F7000F3CF03F00D50060D0150F3240324D96E76
:100F8000DA6ADECF01F0DDCF02F0FEEF08F0FFFFFE
:100F90000F50020DF3CF03F00D50060D0150F32456
:100FA0000324D96EDA6A0F50020DF3CF06F00D500C
:100FB000060D0150F3240624E16EE26A020EE126DA
:100FC000DE50E61807E1DE50E618D8A4EAEF07F095
:100FD000EDEF07F0FFFF16EF08F0FFFF0F50020DD7
:100FE000F3CF03F00D50060D0150F3240324D96E06
:100FF000DA6A0F50020DF3CF06F00D50060D0150C6
:10100000F3240624E16EE26A040EE126DE50E618BF
:1010100007E1DE50E618D8A410EF08F013EF08F04F
:10102000FFFF16EF08F0FFFFB5EF07F0FFFF0F4AD5
:10103000102A10BE25EF08F010500AE1030E0F5CD5
:10104000D8A025EF08F028EF08F0FFFF52EF07F0D7
:10105000FFFF0D4A0E2A0EBE37EF08F00E500AE1D0
:10106000030E0D5CD8A037EF08F03AEF08F0FFFF51
:101070004DEF07F0FFFF0150D96EDA6A080ED9264E
:101080000150E16EE26ADE50E61807E1DE50E61834
:10109000D8A44DEF08F050EF08F0FFFF72EF08F012
:1010A000FFFF0150D96EDA6A100ED9260150E16EA9
:1010B000E26A080EE126DE50E61807E1DE50E61887
:1010C000D8A465EF08F068EF08F0FFFF72EF08F0B2
:1010D000FFFF0150D96EDA6ADECF01F0DDCF02F0FA
:1010E000FEEF08F0FFFF0150D96EDA6A080ED9262C
:1010F0000150E16EE26A0C0EE126DE50E61807E1CF
:10110000DE50E618D8A487EF08F08AEF08F0FFFF5A
:10111000AEEF08F0FFFF0150D96EDA6A040ED9264F
:101120000150E16EE26A080EE126DE50E61807E1A2
:10113000DE50E618D8A49FEF08F0A2EF08F0FFFFFA
:10114000AEEF08F0FFFF0150D96EDA6A0C0ED92617
:10115000DECF01F0DDCF02F0FEEF08F0FFFF000E62
:101160000A6E000E096EFFFF000E0C6E000E0B6E75
:10117000FFFF0B50020DF3CF03F00950060D015095
:10118000F3240324D96EDA6ADE50DE10D8A4CBEF44
:1011900008F0CEEF08F0FFFFD5EF08F0FFFF000EDC
:1011A000026E000E016EFEEF08F0FFFF0B4A0C2AE4
:1011B0000CBEE4EF08F00C500AE1030E0B5CD8A063
:1011C000E4EF08F0E7EF08F0FFFFB8EF08F0FFFFEB
:1011D000094A0A2A0ABEF6EF08F00A500AE1030E8D
:1011E000095CD8A0F6EF08F0F9EF08F0FFFFB3EFC5
:1011F00008F0FFFF000E026E030E016EFFFF1200EB
:10120000FFFFFFFF07C001F008C002F0030E046EED
:10121000E80E036E7EEC09F001C009F002C00AF08E
:10122000FFFF0ABE1FEF09F00A5006E10904D8B01B
:101230001CEF09F01FEF09F0FFFF22EF09F0FFFF9D
:1012400028EF09F0FFFF0906D8A00A0610EF09F001
:10125000FFFF1200FFFFFFFF056E05C003F0010E48
:10126000046E032A37EF09F0FFFFD8900436FFFF22
:10127000032E34EF09F00450066E82500614000964
:10128000D8A445EF09F049EF09F0FFFF010E4BEF3D
:1012900009F0FFFF000EFFFF016E026A1200FFFF60
:1012A000FFFF03C004F0010E056E042A5BEF09F096
:1012B000FFFFD8900536FFFF042E58EF09F001C05C
:1012C000D9FF02C0DAFF0550DF121200FFFFFFFF57
:1012D00001C003F0010E046E032A72EF09F0FFFF54
:1012E000D8900436FFFF032E6FEF09F00450056E0F
:1012F000F80E8116055081121200FFFFFFFF01500A
:101300000302F3CF05F0F4CF06F001500402F350CE
:10131000062602500302F350062605C001F006C05F
:1013200002F01200FFFFFFFFF00E056EF00E8116B7
:1013300001500F0B81120F0E81160338F00BF00BCA
:1013400081121200FFFFFFFF000E826E000E836EFF
:10135000000E806E1200FFFF000101EF03F0FFFF9F
:020000040020DA
:08000000FFFFFFFFFFFFFFFF00
:020000040030CA
:0E000000FF270F0EFF0185FF0FC00FE00F401E
:00000001FF
